:020000040800F2
:1000000018090020C9000008691800080913000831
:1000100000000000000000000000000000000000E0
:100020000000000000000000000000007D19000832
:100030000000000000000000B1180008151C0008B6
:10004000DB00000800000000DB000008DB00000807
:10005000DB000008DB000008DB000008DB00000814
:1000600000000000DB000008DB000008DB000008E7
:10007000DB000008DB000008DB00000800000000D7
:10008000DB000008DB00000800000000DB000008C7
:10009000DB000008DB000008DB000008DB000008D4
:1000A000DB000008DB000008DB000008DB000008C4
:1000B000DB0000080348854600F03CF80048004794
:1000C00041210008180900200448804704480047DF
:1000D000FEE7FEE7FEE7FEE7FEE7FEE7951C000809
:1000E000B500000830B50B4601460020202201244F
:1000F00009E00D46D5409D4205D31D469540491B5C
:100100002546954040191546521E002DF1DC30BDA4
:1001100010B5202A04DB0846203AD040002110BD4B
:100120000B46D340D0402024A21A914008431946E0
:1001300010BD0000064C0125064E05E0E36807CC23
:100140002B430C3C98471034B442F7D3FFF7B6FF6B
:10015000CC230008EC23000830B5044600206518C5
:1001600003E02178641C01F0FBFEAC42F9D30021CE
:1001700001F0F6FE002101F0F3FE30BD7FB5002551
:100180000446009500F04CFB0A4801950294844215
:100190000AD2001B800A0390694601A800F0E6F924
:1001A000002801D00120009000F0D0FA009804B09F
:1001B00070BD0000FFFF000810B586B0002468463F
:1001C00000F04CFA0198012800D10224204606B024
:1001D00010BD000010B500F023FB03493420C860B7
:1001E00000F0B4FA10BD000000200240F7B5002571
:1001F00082B017460E462C4600F012FB19E0A00014
:100200000090325800230220029900F0CBFA002817
:1002100001D0032513E0029801680098305881420C
:1002200001D002250BE00298001D0290002D06D19E
:10023000641CBC4203D2044902988842DFD900F012
:1002400085FA284605B0F0BDFBFF000810B586B062
:100250000446684600F002FA002C08D00020019005
:100260000120009000F08CFA002802D006E0012066
:10027000F5E7684600F004FA002800D0042006B034
:1002800010BD000006490020C8610648016904222B
:10029000114301610169402211430161704700006F
:1002A000F804002000200240F8B5164C216A0143F2
:1002B0000804060ECFB2144800F0E0F8002820D160
:1002C0001249C86100F0A2F900281AD12169102250
:1002D000114321610E4DFF2F07D028893843288113
:1002E000094800F0CBF8002807D1FF2E05D0688917
:1002F00030436881044800F0C1F8226910218A4324
:100300002261F8BD0020024050C30000F804002024
:1003100000F8FF1FF8B5164C216A81430804060E49
:10032000CFB2144800F0AAF8002820D11249C861C1
:1003300000F06CF900281AD12169102211432161C3
:100340000E4DFF2F07D0288938402881094800F03A
:1003500095F8002807D1FF2E05D0688930406881C4
:10036000044800F08BF8226910218A432261F8BD0D
:100370000020024050C30000F804002000F8FF1FD6
:100380000648C06906210840022803D0042803D08B
:10039000AA207047BB207047CC2070470020024045
:1003A000F8B5134E0746304600F068F800281ED115
:1003B0001049C861104C206920252843206120691C
:1003C000402108432061304600F058F82169A943D4
:1003D000216100280BD1206910252843206107489E
:1003E0000780304600F04AF82169A9432161F8BD31
:1003F00050C30000F80400200020024000F8FF1F56
:10040000064A0021D16106490A6902231A430A619A
:10041000486108694022104308617047F8040020D1
:100420000020024010B5054B0022DA61044A13692E
:10043000012423431361018010BD0000F804002053
:100440000020024010B50B4A0020D168CB060A49B3
:1004500004D5C86902231843C8611020D3685B071C
:1004600005D5CB6901242343CB6104210843D06027
:1004700010BD000000200240F804002070B50546C1
:1004800000F08AFA0646104C0AE0681C08D0002DDD
:1004900004D000F081FA801BA84201D9032070BD6E
:1004A000E068C007F1D1E068800601D52020E06057
:1004B000E068C00602D4E068400703D5FFF7C2FF3A
:1004C000012070BD002070BD002002400020704758
:1004D00010B504000DD0607F002803D1207720469E
:1004E00000F024F8022060772046FFF7EFFF002895
:1004F00001D0012010BD6079002814D02069216846
:1005000008612168886860229043626910438860AE
:100510002168886880229043A26910438860012086
:100520006077002010BD0020C043E8E708B50068F0
:100530000549884207D10548426940210A43426182
:1005400040690840009008BD0030024000100240A1
:1005500031B500F021FA009C0546601C00D0641CF7
:1005600000F01AFA401BA042FAD338BDF8B5054690
:1005700023480F46017E012601290BD00121017677
:100580002868204C012807D02046FFF777FF002875
:1005900013D030E00220F8BD2046FFF76FFF00289F
:1005A00029D1FFF76FFE2046FFF768FF0646164881
:1005B00001690422914301611DE00020C0433860BD
:1005C0006C6812E02046FFF71BFF0E48FFF756FF4E
:1005D00006460D48026902218A430261002E01D0BD
:1005E0003C6008E0012080022418A8688102686845
:1005F0000818A042E6D80248002101763046F8BD2E
:10060000F804002050C3000000200240F8B5FFF7B6
:10061000B7FE0F4FC6B23846FFF730FF002815D19E
:100620000C49C8610C4C20692025284320612069B1
:100630004021084320613846FFF720FF2169A94384
:100640002161002802D13046FFF7AAFEF8BD000064
:1006500050C30000F80400200020024070B504469A
:100660000720064D2060286AA060FFF789FE2073EE
:10067000E8697721000A0840607370BD00200240DD
:10068000F8B52E4D0446297E012001290FD0012105
:10069000297621780027C90700290DD06068012834
:1006A000A06806D0FFF700FE002844D104E0022035
:1006B000F8BDFFF72FFEF7E72178890704D5207BE7
:1006C000FFF76EFE002836D121781D4E490719D557
:1006D000607B00901B48FFF7D1FE002810D1EF612E
:1006E0003069102108433061009888210843164979
:1006F00048801448FFF7C2FE3169102291433161EE
:10070000002818D12178090715D520690090247D8B
:100710000C48FFF7B3FE00280DD1EF6130691021BE
:1007200008433061009804800648FFF7A7FE32694D
:1007300010218A4332612F76F8BD0000F8040020B2
:100740000020024050C3000000F8FF1F0348016969
:100750008022114301610020704700000020024008
:1007600010B5054801690122520311430161034894
:10077000FFF784FE10BD00000020024050C30000BF
:1007800005480169890505D40449816004498160EF
:100790000020704701207047002002402301674578
:1007A000AB89EFCDF0B51FB407461A480024017E8F
:1007B00015461E46012907D0012101761648FFF78C
:1007C0005DFE002803D020E0022005B0F0BD012F1F
:1007D00002D0022F00D00427220128463146FFF71D
:1007E00097FC81B2019862001018FFF71BFE0A48BF
:1007F000FFF744FE09490A69520852000A610028BD
:1008000003D1641CE4B2BC42E6D3024900220A765A
:10081000DBE70000F804002050C300000020024085
:1008200005480169090605D504494160044941604C
:1008300000207047012070470020024023016745D7
:10084000AB89EFCDF8B500238DE001249C40A44690
:1008500022407DD04C68022C01D0122C0CD1DC0837
:10086000A40027183C6A5D07ED0E0F26AE40B44386
:100870000E69AE4026433E6205685E000324B44024
:100880000F79A543BF07BF0FB7402F4307604D68DF
:10089000012D05D0022D03D0112D01D0122D0ED126
:1008A0008568CF68A543B7402F4387604768654692
:1008B000AF430D79ED06ED0F9D403D434560C568A2
:1008C000A5438C68B4402C43C4604C68E40049D50F
:1008D000284CA56901263543A561A4699D083440CB
:1008E0000094254CAD002F19BC689D072E0F0F25D5
:1008F000B540AC430925ED06A84201D100250FE023
:100900001E4DA84201D101250AE01D4DA84201D18A
:10091000022505E01B4DA84201D1032500E0052575
:10092000B5402543BD60184C25684E689543F603D5
:1009300000D51543256065684E689543B60300D51C
:1009400015436560A5684E689543F60202D500E040
:1009500008E01543A560E5684E689543B60200D5EA
:100960001543E5605B1C0A681446DC4000D06CE768
:10097000F8BD0000001002400000014000040048E3
:1009800000080048000C004800040140002A01D083
:1009900081617047816270470148006870470000BC
:1009A0001000002002480168491C016070470000E7
:1009B0001000002010B506480168102211430160A4
:1009C000002000F007F800F017F8002010BD00002C
:1009D0000020024010B5044600F03EF97D21C90018
:1009E000FFF780FB00F042FB00222146501E00F082
:1009F00025F8002010BD000008B50F4881690122CC
:100A000011438161816911400091C26901040A4367
:100A1000C261C0690022084000901146501F00F0DA
:100A20000DF800221146901E00F008F80022114631
:100A3000501E00F003F808BD0010024010B500F091
:100A400015FF10BDF8B505460068354CC00352D5FA
:100A5000E0690026C00007D4E16920040143E16198
:100A6000E1690140012600912E480168C90510D4B2
:100A70000168821511430160FFF78EFF074604E00D
:100A8000FFF78AFFC01B642824D826480068C005E9
:100A9000F6D5206A03273F02384020D069683940E4
:100AA00081421CD0206A226AB843012109040A430A
:100AB0002262226A8A4322622062C0070FD0FFF7B7
:100AC0006BFF009008E0FFF767FF0099411A164896
:100AD000814201D90320F8BD206A8007F3D5206A3E
:100AE0006968B84308432062002E04D0E169012000
:100AF00000078143E1612878C00705D0206BA96811
:100B000080088000084320632878800605D5206B84
:100B100010218843E968084320630020F8BD0000E5
:100B2000001002400070004088130000F8B5054630
:100B300044480E460068C007C00FB0420AD2414880
:100B4000016849084900314301600068C007C00FCF
:100B5000B0425CD128783C4C800705D56068F02114
:100B60008843A968084360602878C0073FD0686858
:100B7000012813D02168022813D08907002946DAFA
:100B800061688908890001436160FFF705FF6968B2
:100B9000074601290DD0022917D024E021688903D6
:100BA000ECE78901EAE7FFF7F7FEC11B274881421E
:100BB00017D860680007800F0128F4D117E0FFF70D
:100BC000EBFEC11B214881420BD860680007800FF3
:100BD0000228F4D10BE0FFF7DFFEC11B1B48814266
:100BE00001D90320F8BD60680007800FF3D11548D4
:100BF0000168C907C90FB1420BD90168490849000A
:100C0000314301600068C007C00FB04201D001202D
:100C1000F8BD2878400706D5606807210902884397
:100C2000E9680843606000F02DF86168084A090629
:100C3000090F515CC840074908600020FFF7CAFE51
:100C40000020F8BD00200240001002408813000080
:100C5000E4210008140000200148006870470000EB
:100C6000140000200448054900684968044A490501
:100C7000490F515CC840704714000020001002402A
:100C8000F421000810B512A30FCB88B06C460FC436
:100C900013A30FCB0FC416494A680C201346034018
:100CA0001448042B0FD0082B0DD193021B0F6C4658
:100CB000E45CC96A04AB0907090F595CD20304D587
:100CC000FFF710FA604308B010BD0B486043FAE725
:100CD00002030405060708090A0B0C0D0E0F10107D
:100CE0000102030405060708090A0B0C0D0E0F107C
:100CF0000010024000127A0000093D00FEB50446D3
:100D00000078D04DC00747D068680007800F0128E1
:100D100007D068680007800F022809D16868C003FF
:100D200006D52868800337D5606800287ED033E078
:100D3000012062680004012A11D08100002A01D03C
:100D4000052A10D02A6882432A60286888432860D0
:100D50006068002814D0FFF71FFE06460CE02968E3
:100D600001432960F4E72A680A432A60F7E7FFF79E
:100D700013FE801B64286FD828688003F7D50BE02A
:100D8000FFF70AFE064604E0FFF706FE801B642814
:100D9000F1D828688003F7D420780126800700283E
:100DA0003BDA68680007800F07D068680007800F8B
:100DB000022809D16868C00306D42868800715D5C1
:100DC000E068012832D111E0E0680028286815D0D9
:100DD00030432860FFF7E0FD074604E0FFF7DCFD45
:100DE000C01B0228C7D828688007F7D52868F821D3
:100DF00088432169C900084328600EE0400840008C
:100E00002860FFF7C9FD074604E0FFF7C5FDC01BDA
:100E10000228B0D828688007F7D42078000724D5A6
:100E2000E0690028686A10D0304300E008E1686299
:100E3000FFF7B2FD074604E0FFF7AEFDC01B022836
:100E400099D8686A8007F7D50FE0400840006862CB
:100E5000FFF7A2FD074605E09DE0FFF79DFDC01BE3
:100E6000022888D8686A8007F7D4207804274007CA
:100E7000002860DA00200190E869C00008D4E96920
:100E8000B8060143E961E969014001200091019040
:100E90006D480168C90511D40168821511430160CC
:100EA000FFF77AFD009005E0FFF776FD0099401A04
:100EB000642870D864480068C005F5D5A06801288A
:100EC0000AD0002801D0052810D0286A4008400028
:100ED0002862286AB84301E0286A30432862A06883
:100EE000002812D0FFF758FD00900AE0286A384326
:100EF0002862F1E7FFF750FD0099411A53488142FB
:100F000049D8286A8007F5D50DE0FFF745FD009028
:100F100006E0FFF741FD0099411A4C4881423AD85A
:100F2000286A8007F5D40198002804D0E9690120D7
:100F300000078143E9612078C00635D56069012842
:100F40000CD0401D686B23D038436863686B400841
:100F500040006863FFF720FD064622E0686B3843D7
:100F60006863686B30436863FFF716FD064604E06C
:100F7000FFF712FD801B02285BD8686B8007F7D54E
:100F8000686BF8218843A169C900084368630BE0D6
:100F9000B8436863F4E74CE0FFF7FEFC801B0228CF
:100FA00047D8686B8007F7D4206A002846D0696864
:100FB0000907890F022943D001263606022828682E
:100FC00005D0B0432860FFF7E7FC044633E0B043A8
:100FD0002860FFF7E1FC074604E0FFF7DDFCC01BDB
:100FE000022826D828688001F7D4E86AE16A000957
:100FF00000010843E862616AA06A084369683D220B
:101000001204914308436860286830432860FFF762
:10101000C3FC044604E0FFF7BFFC001B022808D80D
:1010200028688001F7D509E0FFF7B6FC001B02280D
:1010300001D90320FEBD28688001F5D40020FEBD43
:101040000120FEBD00100240007000408813000027
:10105000042204490428086902D0904308617047BB
:101060001043FBE700E000E070470000094910B5BD
:10107000401E884201D9012010BD074C6061032148
:10108000081F00F0F3FB0020A06107202061002072
:1010900010BD0000FFFFFF0000E000E010B5FFF70B
:1010A000E3FF10BD70B5040005D025466035687AB1
:1010B000002802D006E0012070BD002028722046E2
:1010C00000F026F824206872206801684908490069
:1010D0000160204600F07AFE0128EDD0606A002809
:1010E00002D0204600F004FE206841680122D202AE
:1010F00091434160206881680822914381602068A3
:101100000168012211430160204600F056FE70BDC7
:1011100000B500680F4987B0884218D10E4882692F
:10112000012189030A4382618069084005900320F8
:1011300040020090022001900020029003200390C2
:101140000120049009206946C006FFF77BFB07B029
:1011500000BD00000038014000100240FFB5074606
:1011600004466037B87A83B00E46202864D1002E3A
:101170000CD00598002809D00120A1680003814205
:1011800007D12069002804D1F00702D0012007B060
:10119000F0BD387A01284FD0012038720020E06677
:1011A0002220B872FFF7F8FB0290254640350598DB
:1011B0002883059868830122A1681203FF209142C9
:1011C00004D12169002907D11C4805E0002904D178
:1011D0002169002900D07F20A883A88B01901CE002
:1011E000688B401E688306980090002220212046CC
:1011F000029B00F083FE002801D00320C7E70120F6
:10120000A1680003814202D1206900280DD0206826
:10121000818C019801403170761C688B0028DFD1E9
:101220002020B87200203872B1E72068808C0199C4
:1012300008403080B61CF0E70220A8E7FF0100005C
:10124000FFB5064604466036707A83B00D46202806
:1012500058D1002D0CD00598002809D00120A16894
:101260000003814207D12069002804D1E80702D099
:10127000012007B0F0BD307A012843D00120307240
:101280000020E06621207072FFF786FB0190274660
:101290004037059838820598788218E0788A401E91
:1012A000788206980090002280212046019B00F061
:1012B00025FE002818D10120A1680003814202D137
:1012C0002069002812D02168287808856D1C788A4A
:1012D0000028E3D106980090002240212046019B7F
:1012E00000F00CFE002808D00320C2E728882168FF
:1012F000C005C00D0885AD1CE9E7202070720020F4
:101300003072B6E70220B4E7FEE70000F3B5002430
:10131000104F81B02646254639460298FEF7E2FE78
:10132000019A3030105502910A213846641CFEF7AC
:10133000D9FE0746019800192038C07F302801D116
:10134000002E04D0761C6D1C0A2DE5D3FEBD0024B2
:10135000F9E7000000CA9A3B10B50F480D4901603B
:101360000021017141714161816101210162FFF739
:10137000AFF8002803D03D2108A000F0D1FE0648B8
:10138000FFF7A4F8002803D0422104A000F0C8FE13
:1013900010BD000000300240600400202E2E2F43BC
:1013A0006F72652F5372632F6372632E63000000A8
:1013B000F0B5254887B04269012189050A43426199
:1013C00042690A400592426949110A4342614269F1
:1013D0000A400592426949000A4342614069092670
:1013E0000840F606059001220A213046FFF7CEFAA2
:1013F000FF21002201313046FFF7C8FA134F0122C6
:10140000C0213846FFF7C2FAFF200B300124002527
:10141000009001946946039502943046FFF712FA52
:10142000C020009001946946039502943846FFF766
:1014300009FA302000900195694602950448FFF7AB
:1014400001FA07B0F0BD000000100240001400488F
:101450000004004810B50D480B490160E121490224
:10146000416000218160C16001618161C1610C2224
:10147000016242614162FFF715FE002803D044215A
:1014800003A000F04DFE10BD003801408404002090
:101490002E2E2F436F72652F5372632F75736172F7
:1014A000742E630008B50020694608703C4800F0BF
:1014B00037FB3C4800F034FB3B4800F031FB3B4835
:1014C00000F02EFB384800F02BFB394800F028FBD9
:1014D000334800F025FB37A000F022FBFEF76CFE3E
:1014E000364C374E08250027FF43206035A000F01A
:1014F00017FB44A000F014FB52A000F011FB206881
:10150000002801D05FA000E06EA000F009FB7DA0E4
:1015100000F006FB3068816929438161306805620B
:101520003B46012269462648FFF718FE68460078C8
:10153000312807D03228D9D0332806D0342810D00B
:1015400080A017E000F01CFAD0E78EA000F0E8FAC7
:1015500095494868A0606060096881F30888804701
:10156000C4E7206800280AD00120FEF76FFE00289B
:1015700003D08EA000F0D4FAB8E798A007E00020CE
:10158000FEF764FE002801D09CA0F3E7A6A000F0BF
:10159000C7FAADA000F0C4FAFFF7E2F8A6E7000032
:1015A000802300089C2200085022000834230008F1
:1015B000E82200080D0A0D0A0000000000000020CB
:1015C000840400200D0A3D3D3D3D3D3D3D3D3D3DFA
:1015D0003D3D3D3D3D3D3D3D3D204D61696E204DD4
:1015E000656E75203D3D3D3D3D3D3D3D3D3D3D3DB7
:1015F0003D3D3D3D3D3D3D3D3D3D3D3D3D3D3D3D1B
:101600000D0A0A002020446F776E6C6F61642069B8
:101610006D61676520746F2074686520696E7465FC
:10162000726E616C20466C617368202D2D2D2D2DFE
:101630002D2D2D2D2D2D2D2D2D2D2D2D20310D0A26
:101640000A00000020204578656375746520746881
:1016500065206C6F61646564206170706C696361A2
:1016600074696F6E202D2D2D2D2D2D2D2D2D2D2DB1
:101670002D2D2D2D2D2D2D2D2D2D2D2D20330D0AE4
:101680000A000000202044697361626C6520746860
:10169000652077726974652070726F746563746910
:1016A0006F6E202D2D2D2D2D2D2D2D2D2D2D2D2DF4
:1016B0002D2D2D2D2D2D2D2D2D2D2D2D20340D0AA3
:1016C0000A0000002020456E61626C652074686528
:1016D0002077726974652070726F74656374696FC6
:1016E0006E202D2D2D2D2D2D2D2D2D2D2D2D2D2DF6
:1016F0002D2D2D2D2D2D2D2D2D2D2D2D20340D0A63
:101700000A0000003D3D3D3D3D3D3D3D3D3D3D3DF3
:101710003D3D3D3D3D3D3D3D3D3D3D3D3D3D3D3DF9
:101720003D3D3D3D3D3D3D3D3D3D3D3D3D3D3D3DE9
:101730003D3D3D3D3D3D3D3D3D3D3D3D3D3D0D0A3C
:101740000A000000496E76616C6964204E756D6216
:1017500065722021203D3D3E20546865206E756DE8
:101760006265722073686F756C64206265206569BC
:101770007468657220312C20322C2033206F722047
:10178000340D000053746172742070726F6772615F
:101790006D20657865637574696F6E2E2E2E2E2E02
:1017A0002E0D0A0A00000000004000084572726F0A
:1017B000723A20466C61736820777269746520758F
:1017C0006E2D70726F74656374696F6E20666169E7
:1017D0006C65642E2E2E0D0A00000000577269748D
:1017E000652050726F74656374696F6E20646973ED
:1017F00061626C65642E2E2E0D0A00004572726FB8
:10180000723A20466C617368207772697465207043
:10181000726F74656374696F6E206661696C65646C
:101820002E2E2E0D0A00000057726974652050722A
:101830006F74656374696F6E20656E61626C656458
:101840002E2E2E0D0A00000053797374656D2077DB
:10185000696C6C206E6F7720726573746172742E80
:101860002E2E0D0A00000000704700008307FF22A3
:10187000DB0E9A408907090E994000280BDA000711
:10188000000F0838830808489B001818C369934361
:101890000B43C3617047830804489B001B181868FA
:1018A000904308431860704700ED00E000E400E05A
:1018B00070470000F7B584B000240C600F46064660
:1018C000012203A92B48069BFFF748FC050020D105
:1018D0006846007B182820D006DC01280BD002289F
:1018E0000BD0042804D104E0412828D0612826D058
:1018F000012530700DE0802401E00124A402307045
:10190000221DB11C1B48069BFFF728FC050018D0C0
:1019100000243C60284607B0F0BD012203A9154809
:10192000069BFFF71BFC002803D16846007B1828A4
:1019300003D068460125007BDBE70224D9E70225B6
:10194000D7E7F078B178FF22504081420ED13119AB
:10195000087949790002091800912146301DFEF7E7
:10196000FBFB0549086000998842D2D0002401257C
:10197000CFE70000840400200C0000207047000026
:101980001FB50020009001900290039016A000F077
:10199000C7F803A800F0F6FA002807D005281AD0E7
:1019A00004281CD002281CD01EA015E0254800F0F9
:1019B000B7F8254800F0B4F868460399FFF7A6FC8D
:1019C00022A000F0ADF8684600F0AAF822A000F0CE
:1019D000A7F824A000E029A000F0A2F81FBD37A0BE
:1019E000FAE73DA0F8E7000057616974696E672067
:1019F000666F72207468652066696C6520746F205C
:101A000062652073656E74202E2E2E2028707265FC
:101A100073732027612720746F2061626F727429AD
:101A20000A0D00000A0D4661696C656420746F2020
:101A300072656365697665207468652066696C65A2
:101A4000210A0D00FC210008180000200A0D205377
:101A5000697A653A200000002042797465730D0AA6
:101A6000000000002D2D2D2D2D2D2D2D2D2D2D2D5A
:101A70002D2D2D2D2D2D2D0A000000000A0A0D54AC
:101A8000686520696D6167652073697A652069738F
:101A900020686967686572207468616E2074686583
:101AA00020616C6C6F776564207370616365206D75
:101AB000656D6F7279210A0D000000000A0A0D564B
:101AC0006572696669636174696F6E206661696CCD
:101AD0006564210A0D0000000D0A0A41626F7274EC
:101AE000656420627920757365722E0A0D0000000E
:101AF00031B50924E4066069FF250135284360619A
:101B00000120FEF725FD6423012269460348FFF703
:101B100097FB6169A943616138BD0000840400201E
:101B2000F8B50646002401E0641CA4B2305D00282C
:101B3000FAD10925ED066869FF2701373843686146
:101B40000120FEF705FD6423224631460348FFF7D6
:101B500077FB6869B8436861F8BD00008404002021
:101B6000F0B5054600242B7820462246302B2CD198
:101B70006B78782B01D0582B27D102241AE01E460F
:101B8000413E052E06D91F46613F052F02D9313748
:101B9000092F13D81F461201303F092F01D83B46A9
:101BA00004E0052E01D8373B00E0573BD218641CF7
:101BB0000B2C04D22B5D002BE1D103E000202B5D28
:101BC000002B01D101200A60F0BD2B5D002B0ED04F
:101BD0006B2B01D04B2B03D1002C01D0920206E0DD
:101BE0006D2B01D04D2B05D1002C03D01205012007
:101BF0000A6007E01E46303E092E09D80A267243C5
:101C0000303A9A18641C0B2CDED20128DDD1F0BDCD
:101C10000020F0BD10B5FEF7C5FEFFF73FFA10BD7E
:101C200070B594B0012528040990009500010226A2
:101C3000019500240A9008960B946846FFF75EF819
:101C4000002800D0FEE707200C900E9401210D968D
:101C50000F940CA8FEF76AFF002800D0FEE710A83A
:101C600010951294FEF7EEFE002800D0FEE7FEF776
:101C7000F3FF7D21C900FEF735FAFFF7F7F90420DD
:101C8000FFF7E6F900221146501EFEF7D7FE14B00A
:101C900070BD0000134801680122114301604168D2
:101CA000114A114041600168104A11400160016809
:101CB000012292049143016041683F221204914342
:101CC0004160C16A09090901C162016BFF22143236
:101CD00091430163416B49084900416300218160E0
:101CE00070470000001002400CB8FF08FFFFF6FE2E
:101CF00010B5818CC90707D001684A6801235B04CD
:101D00009A43836A1A434A60818C890707D5016820
:101D10004A6801231B049A43C36A1A434A60818CB0
:101D2000490707D501684A6801239B049A43036B5E
:101D30001A434A60818C090707D501684A68012364
:101D4000DB039A43436B1A434A60818CC90607D56B
:101D50000268916801231B039943836B19439160C7
:101D6000818C890607D501688A6801235B039A4341
:101D7000C36B1A438A60818C490612D503685A687E
:101D800001210905046C8A4322435A60026C8A428D
:101D900007D10268516803235B059943436C1943DB
:101DA0005160818C090607D501684A680123DB046C
:101DB000806C9A4302434A6010BD0021C166202214
:101DC000603042728272017208467047F8B504466C
:101DD0002369A268E5691A43636910202B43002137
:101DE00025681A432B680E463E4F3B4013432B6039
:101DF00023685A6803252D03AA43E5682A435A60DD
:101E0000236AA26925681A43AB680B273F02BB43CC
:101E10001343AB60344A2568954210D1334A126BA4
:101E20009207920F0ED0012A05D0022A05D0032A6C
:101E300009D1022007E0042005E0082003E02C4A35
:101E4000954200D100200122E369D203934224D1BC
:101E500000280CD002280DD0042813D0082817D051
:101E600001260A0912010807400F10432FE0FEF770
:101E7000F9FE09E061681F4A48088018FEF732F948
:101E800081B2EEE7FEF7FEFE616840004A08F4E723
:101E90006168012248081204EFE7002808D00228F0
:101EA00009D004280BD0082814D001263046F8BDEC
:101EB000FEF7D8FE05E061680F4A48080CE0FEF71F
:101EC000E1FE61684A088018FEF70CF980B22168CB
:101ED000C860EBE7616848088018FEF703F980B234
:101EE000E860E3E7F369FFFF0038014000100240BB
:101EF000004400400024F40000127A00FFB581B0D5
:101F000017460E4604460A9D1DE0681C1BD0002D96
:101F100005D0FEF741FD0499401AA84213D9206864
:101F20000168FF22A132914301602068816849085D
:101F300049008160202060346072A072002020720D
:101F4000032005B0F0BD2068C1693046884304D045
:101F50000020B842D9D00020F3E70120F9E70000C3
:101F6000074AFF31013140004900CB0500D5401C34
:101F7000C30300D55040CB03F5D580B270470000B5
:101F800021100000F1B5002790B060483E463C4665
:101F90000C970090B2E0002005460D90AAE07D224B
:101FA000D20008A95A48FFF785FC00280CD0022867
:101FB0007ED00C98002800D0761C052E79D91820E8
:101FC000FFF796FD182093E00898002600280DD012
:101FD000022806D04E490D9A8B7893420BD01520DB
:101FE00086E00620FFF784FD022483E00620FFF749
:101FF0007FFD01257EE0002A14D08208091D00988B
:10200000FEF7F4F8002865D01820FFF771FD1820BE
:10201000FFF76EFD04240D98401CC0B20D90012006
:102020000C9067E0087900284ED00020394B091D3C
:1020300002E01A54401C491C0A78002A01D04028AA
:10204000F7D300221A54104604AB01E01A54401C86
:10205000491C0A78202A01D01028F7D300211954EE
:102060000EA91846FFF77CFD10982B49006888429E
:102070001CD91820694609240872E4066069FF210A
:102080000131084360610B03012202A92348FFF7D5
:10209000D7F801231B05012202A92048FFF7D0F839
:1020A0006169FF200130814361610524174801E027
:1020B00018E01CE0FEF762F810980E990160062007
:1020C000FFF716FD43200AE00620FFF711FD01256A
:1020D0002F460FE008990098401800900620FFF75F
:1020E00007FD98E71820FFF703FD18207AE7432043
:1020F000FFF7FEFC2846204300D150E73846204336
:1021000000D148E7204611B0F0BD000000400008B3
:102110005800002018000020013000008404002036
:10212000FEE702E008C8121F08C1002AFAD1704772
:102130007047002001E001C1121F002AFBD1704747
:102140000024FEF737FCFFF76BFDFFF731F9FFF7CF
:1021500081F9FFF701F91D4D04E00A20FEF7F8F9B7
:10216000641CA4B22869C00605D42869800602D47C
:10217000C82CF2D301E0C82C17D31548416940227E
:102180009143416141698022914341610920C00628
:1021900041690222914341614169082291434161B1
:1021A000FEF718F8FFF77EF90FE00A4801680A4ABF
:1021B0001140C203914208D14168084A1160084A9F
:1021C0001160006880F308888847FEE70004004833
:1021D00000140048004000080000FE2F0800002006
:1021E00004000020000000000000000001020304C1
:1021F0000607080900000000010203040A0A0D2076
:1022000050726F6772616D6D696E6720436F6D709C
:102210006C65746564205375636365737366756C70
:102220006C79210A0D2D2D2D2D2D2D2D2D2D2D2DA2
:102230002D2D2D2D2D2D2D2D2D2D2D2D2D2D2D2DCE
:102240002D2D2D2D2D0D0A204E616D653A2000009B
:102250000D0A3D202020202020202020202020208A
:10226000202020202020202020202020202020206E
:10227000202020202020202020202020202020205E
:10228000202020202020202020202020202020204E
:10229000202020202020203D000000000D0A3D20AD
:1022A00020202020202020202020202020284329FA
:1022B00020434F505952494748542032303135203D
:1022C00053544D6963726F656C656374726F6E69A8
:1022D0006373202020202020202020202020202068
:1022E0002020203D000000000D0A3D20202020205D
:1022F00020202020202020202020202020202020DE
:102300002020202020202020202020202020427952
:10231000204D4344204170706C69636174696F6E35
:10232000205465616D202020202020202020203D89
:10233000000000000D0A3D202053544D33324C3034
:10234000787820496E2D4170706C69636174696F93
:102350006E2050726F6772616D6D696E672041709B
:10236000706C69636174696F6E20202856657273A2
:10237000696F6E20312E302E3029203D0000000084
:102380000D0A3D3D3D3D3D3D3D3D3D3D3D3D3D3DE0
:102390003D3D3D3D3D3D3D3D3D3D3D3D3D3D3D3D6D
:1023A0003D3D3D3D3D3D3D3D3D3D3D3D3D3D3D3D5D
:1023B0003D3D3D3D3D3D3D3D3D3D3D3D3D3D3D3D4D
:1023C0003D3D3D3D3D3D3D3D00000000EC2300080E
:1023D000000000201800000022210008042400084A
:1023E0001800002000090000322100080000000051
:1023F00000000000000000000000000000000000DD
:0424000000127A004C
:04000005080000B53A
:00000001FF
